{
	"data": {
		"bytecode": {
			"linkReferences": {},
			"object": "6080604052600a6001556002805534801561001957600080fd5b50336000806101000a81548173ffffffffffffffffffffffffffffffffffffffff021916908373ffffffffffffffffffffffffffffffffffffffff160217905550610355806100696000396000f3fe60806040526004361061004a5760003560e01c806312065fe01461004f5780633ccfd60b1461007a5780638da5cb5b14610091578063cde4efa9146100d2578063ed88c68e146100dc575b600080fd5b34801561005b57600080fd5b506100646100e6565b6040518082815260200191505060405180910390f35b34801561008657600080fd5b5061008f6100ee565b005b34801561009d57600080fd5b506100a66101af565b604051808273ffffffffffffffffffffffffffffffffffffffff16815260200191505060405180910390f35b6100da6101d8565b005b6100e46102aa565b005b600047905090565b60008054906101000a900473ffffffffffffffffffffffffffffffffffffffff1673ffffffffffffffffffffffffffffffffffffffff163373ffffffffffffffffffffffffffffffffffffffff161461014657600080fd5b60008054906101000a900473ffffffffffffffffffffffffffffffffffffffff1673ffffffffffffffffffffffffffffffffffffffff166108fc479081150290604051600060405180830381858888f193505050501580156101ac573d6000803e3d6000fd5b50565b60008060009054906101000a900473ffffffffffffffffffffffffffffffffffffffff16905090565b6001543410156101e757600080fd5b60004790506000600254340290508082101561020257600080fd5b600061020e60646102e3565b905060328110610260573373ffffffffffffffffffffffffffffffffffffffff166108fc839081150290604051600060405180830381858888f1935050505015801561025e573d6000803e3d6000fd5b505b7f4705b69be8b2e6701ecd96d3efc3f339055038444110d04e1209d4d2aa10a4d08260328310156040518083815260200182151581526020019250505060405180910390a1505050565b7f33ac262747c8397a2c737ef15aa625b857fa57c6987e46fe8590677c9a3b7a2e476040518082815260200191505060405180910390a1565b60008142604051602001808281526020019150506040516020818303038152906040528051906020012060001c8161031757fe5b06905091905056fea2646970667358221220dc0bc4a227ba56ead7700fd2c3f3e9095e0e04a48c3bf1e875dc30403698c79c64736f6c63430007060033",
			"opcodes": "PUSH1 0x80 PUSH1 0x40 MSTORE PUSH1 0xA PUSH1 0x1 SSTORE PUSH1 0x2 DUP1 SSTORE CALLVALUE DUP1 ISZERO PUSH2 0x19 JUMPI PUSH1 0x0 DUP1 REVERT JUMPDEST POP CALLER PUSH1 0x0 DUP1 PUSH2 0x100 EXP DUP2 SLOAD DUP2 PUSH20 0xFFFFFFFFFFFFFFFFFFFFFFFFFFFFFFFFFFFFFFFF MUL NOT AND SWAP1 DUP4 PUSH20 0xFFFFFFFFFFFFFFFFFFFFFFFFFFFFFFFFFFFFFFFF AND MUL OR SWAP1 SSTORE POP PUSH2 0x355 DUP1 PUSH2 0x69 PUSH1 0x0 CODECOPY PUSH1 0x0 RETURN INVALID PUSH1 0x80 PUSH1 0x40 MSTORE PUSH1 0x4 CALLDATASIZE LT PUSH2 0x4A JUMPI PUSH1 0x0 CALLDATALOAD PUSH1 0xE0 SHR DUP1 PUSH4 0x12065FE0 EQ PUSH2 0x4F JUMPI DUP1 PUSH4 0x3CCFD60B EQ PUSH2 0x7A JUMPI DUP1 PUSH4 0x8DA5CB5B EQ PUSH2 0x91 JUMPI DUP1 PUSH4 0xCDE4EFA9 EQ PUSH2 0xD2 JUMPI DUP1 PUSH4 0xED88C68E EQ PUSH2 0xDC JUMPI JUMPDEST PUSH1 0x0 DUP1 REVERT JUMPDEST CALLVALUE DUP1 ISZERO PUSH2 0x5B JUMPI PUSH1 0x0 DUP1 REVERT JUMPDEST POP PUSH2 0x64 PUSH2 0xE6 JUMP JUMPDEST PUSH1 0x40 MLOAD DUP1 DUP3 DUP2 MSTORE PUSH1 0x20 ADD SWAP2 POP POP PUSH1 0x40 MLOAD DUP1 SWAP2 SUB SWAP1 RETURN JUMPDEST CALLVALUE DUP1 ISZERO PUSH2 0x86 JUMPI PUSH1 0x0 DUP1 REVERT JUMPDEST POP PUSH2 0x8F PUSH2 0xEE JUMP JUMPDEST STOP JUMPDEST CALLVALUE DUP1 ISZERO PUSH2 0x9D JUMPI PUSH1 0x0 DUP1 REVERT JUMPDEST POP PUSH2 0xA6 PUSH2 0x1AF JUMP JUMPDEST PUSH1 0x40 MLOAD DUP1 DUP3 PUSH20 0xFFFFFFFFFFFFFFFFFFFFFFFFFFFFFFFFFFFFFFFF AND DUP2 MSTORE PUSH1 0x20 ADD SWAP2 POP POP PUSH1 0x40 MLOAD DUP1 SWAP2 SUB SWAP1 RETURN JUMPDEST PUSH2 0xDA PUSH2 0x1D8 JUMP JUMPDEST STOP JUMPDEST PUSH2 0xE4 PUSH2 0x2AA JUMP JUMPDEST STOP JUMPDEST PUSH1 0x0 SELFBALANCE SWAP1 POP SWAP1 JUMP JUMPDEST PUSH1 0x0 DUP1 SLOAD SWAP1 PUSH2 0x100 EXP SWAP1 DIV PUSH20 0xFFFFFFFFFFFFFFFFFFFFFFFFFFFFFFFFFFFFFFFF AND PUSH20 0xFFFFFFFFFFFFFFFFFFFFFFFFFFFFFFFFFFFFFFFF AND CALLER PUSH20 0xFFFFFFFFFFFFFFFFFFFFFFFFFFFFFFFFFFFFFFFF AND EQ PUSH2 0x146 JUMPI PUSH1 0x0 DUP1 REVERT JUMPDEST PUSH1 0x0 DUP1 SLOAD SWAP1 PUSH2 0x100 EXP SWAP1 DIV PUSH20 0xFFFFFFFFFFFFFFFFFFFFFFFFFFFFFFFFFFFFFFFF AND PUSH20 0xFFFFFFFFFFFFFFFFFFFFFFFFFFFFFFFFFFFFFFFF AND PUSH2 0x8FC SELFBALANCE SWAP1 DUP2 ISZERO MUL SWAP1 PUSH1 0x40 MLOAD PUSH1 0x0 PUSH1 0x40 MLOAD DUP1 DUP4 SUB DUP2 DUP6 DUP9 DUP9 CALL SWAP4 POP POP POP POP ISZERO DUP1 ISZERO PUSH2 0x1AC JUMPI RETURNDATASIZE PUSH1 0x0 DUP1 RETURNDATACOPY RETURNDATASIZE PUSH1 0x0 REVERT JUMPDEST POP JUMP JUMPDEST PUSH1 0x0 DUP1 PUSH1 0x0 SWAP1 SLOAD SWAP1 PUSH2 0x100 EXP SWAP1 DIV PUSH20 0xFFFFFFFFFFFFFFFFFFFFFFFFFFFFFFFFFFFFFFFF AND SWAP1 POP SWAP1 JUMP JUMPDEST PUSH1 0x1 SLOAD CALLVALUE LT ISZERO PUSH2 0x1E7 JUMPI PUSH1 0x0 DUP1 REVERT JUMPDEST PUSH1 0x0 SELFBALANCE SWAP1 POP PUSH1 0x0 PUSH1 0x2 SLOAD CALLVALUE MUL SWAP1 POP DUP1 DUP3 LT ISZERO PUSH2 0x202 JUMPI PUSH1 0x0 DUP1 REVERT JUMPDEST PUSH1 0x0 PUSH2 0x20E PUSH1 0x64 PUSH2 0x2E3 JUMP JUMPDEST SWAP1 POP PUSH1 0x32 DUP2 LT PUSH2 0x260 JUMPI CALLER PUSH20 0xFFFFFFFFFFFFFFFFFFFFFFFFFFFFFFFFFFFFFFFF AND PUSH2 0x8FC DUP4 SWAP1 DUP2 ISZERO MUL SWAP1 PUSH1 0x40 MLOAD PUSH1 0x0 PUSH1 0x40 MLOAD DUP1 DUP4 SUB DUP2 DUP6 DUP9 DUP9 CALL SWAP4 POP POP POP POP ISZERO DUP1 ISZERO PUSH2 0x25E JUMPI RETURNDATASIZE PUSH1 0x0 DUP1 RETURNDATACOPY RETURNDATASIZE PUSH1 0x0 REVERT JUMPDEST POP JUMPDEST PUSH32 0x4705B69BE8B2E6701ECD96D3EFC3F339055038444110D04E1209D4D2AA10A4D0 DUP3 PUSH1 0x32 DUP4 LT ISZERO PUSH1 0x40 MLOAD DUP1 DUP4 DUP2 MSTORE PUSH1 0x20 ADD DUP3 ISZERO ISZERO DUP2 MSTORE PUSH1 0x20 ADD SWAP3 POP POP POP PUSH1 0x40 MLOAD DUP1 SWAP2 SUB SWAP1 LOG1 POP POP POP JUMP JUMPDEST PUSH32 0x33AC262747C8397A2C737EF15AA625B857FA57C6987E46FE8590677C9A3B7A2E SELFBALANCE PUSH1 0x40 MLOAD DUP1 DUP3 DUP2 MSTORE PUSH1 0x20 ADD SWAP2 POP POP PUSH1 0x40 MLOAD DUP1 SWAP2 SUB SWAP1 LOG1 JUMP JUMPDEST PUSH1 0x0 DUP2 TIMESTAMP PUSH1 0x40 MLOAD PUSH1 0x20 ADD DUP1 DUP3 DUP2 MSTORE PUSH1 0x20 ADD SWAP2 POP POP PUSH1 0x40 MLOAD PUSH1 0x20 DUP2 DUP4 SUB SUB DUP2 MSTORE SWAP1 PUSH1 0x40 MSTORE DUP1 MLOAD SWAP1 PUSH1 0x20 ADD KECCAK256 PUSH1 0x0 SHR DUP2 PUSH2 0x317 JUMPI INVALID JUMPDEST MOD SWAP1 POP SWAP2 SWAP1 POP JUMP INVALID LOG2 PUSH5 0x6970667358 0x22 SLT KECCAK256 0xDC SIGNEXTEND 0xC4 LOG2 0x27 0xBA JUMP 0xEA 0xD7 PUSH17 0xFD2C3F3E9095E0E04A48C3BF1E875DC30 BLOCKHASH CALLDATASIZE SWAP9 0xC7 SWAP13 PUSH5 0x736F6C6343 STOP SMOD MOD STOP CALLER "
		},
		"gasEstimates": {
			"creation": {
				"codeDepositCost": "170600",
				"executionCost": "61092",
				"totalCost": "231692"
			},
			"external": {
				"donate()": "1255",
				"flip()": "infinite",
				"getBalance()": "193",
				"owner()": "1077",
				"withdraw()": "infinite"
			},
			"internal": {
				"_randNum(uint256)": "infinite"
			}
		},
		"methodIdentifiers": {
			"donate()": "ed88c68e",
			"flip()": "cde4efa9",
			"getBalance()": "12065fe0",
			"owner()": "8da5cb5b",
			"withdraw()": "3ccfd60b"
		}
	},
	"abi": [
		{
			"anonymous": false,
			"inputs": [
				{
					"indexed": false,
					"internalType": "uint256",
					"name": "_balance",
					"type": "uint256"
				}
			],
			"name": "Donate",
			"type": "event"
		},
		{
			"anonymous": false,
			"inputs": [
				{
					"indexed": false,
					"internalType": "uint256",
					"name": "_reward",
					"type": "uint256"
				},
				{
					"indexed": false,
					"internalType": "bool",
					"name": "_result",
					"type": "bool"
				}
			],
			"name": "Flip",
			"type": "event"
		},
		{
			"inputs": [],
			"name": "donate",
			"outputs": [],
			"stateMutability": "payable",
			"type": "function"
		},
		{
			"inputs": [],
			"name": "flip",
			"outputs": [],
			"stateMutability": "payable",
			"type": "function"
		},
		{
			"inputs": [],
			"name": "getBalance",
			"outputs": [
				{
					"internalType": "uint256",
					"name": "",
					"type": "uint256"
				}
			],
			"stateMutability": "view",
			"type": "function"
		},
		{
			"inputs": [],
			"name": "owner",
			"outputs": [
				{
					"internalType": "address",
					"name": "",
					"type": "address"
				}
			],
			"stateMutability": "view",
			"type": "function"
		},
		{
			"inputs": [],
			"name": "withdraw",
			"outputs": [],
			"stateMutability": "nonpayable",
			"type": "function"
		}
	]
}